S0190000756C747261736F6E69632073656E736F722E737265630D
S11300000C942A000C943F000C943F000C943F0085
S11300100C943F000C943F000C943F000C943F0060
S11300200C943F000C943F000C943F000C943F0050
S11300300C943F000C943F000C943F000C943F0040
S11300400C943F000C943F000C943F000C943F0030
S11300500C943F0011241FBECFE5D8E0DEBFCDBF16
S113006010E0A0E6B0E0EEEAF5E002C005900D92E3
S1130070A837B107D9F70E941A020C94D5020C9440
S11300800000823419F118F4813439F0089583346E
S1130090B1F1843409F44CC00895413059F42AB3C1
S11300A081E090E002C0880F991F6A95E2F7822BE5
S11300B08ABB08952AB381E090E002C0880F991F9B
S11300C06A95E2F7809582238ABB0895413059F4FA
S11300D027B381E090E002C0880F991F6A95E2F788
S11300E0822B87BB089527B381E090E002C0880F7C
S11300F0991F6A95E2F78095822387BB0895413062
S113010059F424B381E090E002C0880F991F6A95E6
S1130110E2F7822B84BB089524B381E090E002C00F
S1130120880F991F6A95E2F78095822384BB08950E
S1130130413059F421B381E090E002C0880F991F47
S11301406A95E2F7822B81BB089521B381E090E0A8
S113015002C0880F991F6A95E2F78095822381BBBC
S11301600895823419F118F4813439F008958334F0
S1130170B1F1843409F44CC00895413059F42BB3DF
S113018081E090E002C0880F991F6A95E2F7822B04
S11301908BBB08952BB381E090E002C0880F991FB8
S11301A06A95E2F7809582238BBB0895413059F418
S11301B028B381E090E002C0880F991F6A95E2F7A6
S11301C0822B88BB089528B381E090E002C0880F99
S11301D0991F6A95E2F78095822388BB0895413080
S11301E059F425B381E090E002C0880F991F6A9505
S11301F0E2F7822B85BB089525B381E090E002C02D
S1130200880F991F6A95E2F78095822385BB08952C
S1130210413059F422B381E090E002C0880F991F65
S11302206A95E2F7822B82BB089522B381E090E0C5
S113023002C0880F991F6A95E2F78095822382BBDA
S113024008956295607F823479F018F4813431F036
S11302500895833479F0843499F008958BB38F70C2
S11302608BBB8BB3862B8BBB88B38F7088BB88B357
S1130270862B88BB85B38F7085BB85B3862B85BBE6
S113028082B38F7082BB82B3682B62BB089541E056
S113029060E082E40E94B1008FE99FE00197F1F7EA
S11302A000C0000040E060E082E40E94B1008FE9F9
S11302B09FE00197F1F700C000000895CF93C82F85
S11302C0682F62956F7081E40E94210140E061E033
S11302D082E40E94B1000E9447016C2F81E40E94D5
S11302E0210140E061E082E40E94B1000E944701E4
S11302F08FEC97E00197F1F700C00000CF910895CB
S11303002FEF81EE94E0215080409040E1F700C04F
S1130310000041E064E081E40E94410041E065E0C6
S113032081E40E94410041E066E081E40E944100D2
S113033041E067E081E40E94410041E060E082E442
S11303400E94410041E062E082E40E94410041E0F9
S113035061E082E40E94410040E062E082E40E94A5
S1130360B10082E00E945E018FE19EE40197F1F703
S113037000C0000088E20E945E018FEC97E00197C4
S1130380F1F700C000008EE00E945E018FEC97E060
S11303900197F1F700C0000081E00E945E018FE147
S11303A09EE40197F1F700C0000086E00E945E0120
S11303B08FEC97E00197F1F700C000000895CF9308
S11303C0C82F682F62956F7081E40E94210141E07B
S11303D061E082E40E94B1000E9447016C2F81E435
S11303E00E94210141E061E082E40E94B1000E9488
S11303F047018FEC97E00197F1F700C00000CF911F
S11304000895CF93DF93EC018881882331F02196FE
S11304100E94DF0189918111FBCFDF91CF91089573
S113042081E00E945E018FE19EE40197F1F700C034
S1130430000008950E94800141E067E084E40E9486
S1130440410010E20F2EF1EC7F2EF02D01E80F2E6B
S1130450812CF4E29F2EF4EFAF2EB12CF02D1FBCB3
S113046018BF41E067E084E40E94B10025E82A95C2
S1130470F1F7000040E067E084E40E94B1007EBC34
S113048008B605FEFDCF86B597B518BF0EBD08B6F4
S113049005FEFDCF26B537B518BF1DBC1CBC1EBC60
S11304A0281B390BA8E2B7E80E94C602A5019401F3
S11304B00E94A40269017A012035310580F00E946E
S11304C0100280E690E00E9401029FEF24E38CE09A
S11304D0915020408040E1F700C00000C0CF0E944E
S11304E010028AE690E00E9401029601ADECBCEC99
S11304F00E94C602EC01D695C795D695C795D695A8
S1130500C7958C2F805D0E94DF01CE01880F991F53
S1130510CC0FDD1FCC0FDD1FCC0FDD1FC80FD91F83
S1130520C6018C1B9D0B805D0E94DF0184E790E077
S11305300E9401029FEF24E38CE091502040804010
S1130540E1F700C000008BCFA1E21A2EAA1BBB1B4F
S1130550FD010DC0AA1FBB1FEE1FFF1FA217B3078B
S1130560E407F50720F0A21BB30BE40BF50B661FA1
S1130570771F881F991F1A9469F760957095809565
S113058090959B01AC01BD01CF010895A29FB001DC
S1130590B39FC001A39F700D811D1124911DB29FB3
S11105A0700D811D1124911D0895F894FFCF54
S11305AE6E6F206F626A6563740064697374616E42
S10B05BE63653D00636D00005C
S9030000FC
